01Nómina              110000000012016010100000500000000008954406VEB                                                                                                                                                              
02V014643985MANUEL MORENO                                               000000001SEMANA DE TRABAJO             CTA11111111111111111111011620160101000000000450536VEB000000000000000manuelmoreno2156@gmail.com              04267490025                    
02V013556897JONA VAZQUES                                                000000002QUINCENA DE TRABAJO           CTA22222222222222222222011620160101000000001671620VEB000000000000000Jona937@hotmail.com                     02434318181                    
02V021662577GABRIEL  CASTILLO                                           000000003QUINCENA DE TRABAJO           CTA33333333333333333333010820160101000000002433750VEB000000000000000jesgac@hotmail.com                      04168477730                    
02V016558975GLORIA PRIETO                                               000000004QUINCENA DE TRABAJO           CTA44444445555555555555000120160101000000002199250VEB000000000000000Gloria1112@hotmail.com                  04165558796                    
02V022614153JESUS PIGNONE                                               000000005QUINCENA DE TRABAJO           CTA00000000000000000000000820160101000000002199250VEB000000000000000jesuspigno@gmail.com                    00000000000                    
