01Nómina              J31532823210026520000000012016022600000300000000006228520VEB                                                                                                                                                              
02V014394605JONA CARELINA VASQUEZ ALZURO                                000000001QUINCENA DE TRABAJO           CTA01160024710006468918011620160226000000002411500VEB000000000000000JONA937@HOTMAIL.COM                     00000000000                    
02V007282075JACINTO DE LA CRUZ ROJAS ZAPATA                             000000002SEMANA DE TRABAJO             CTA01160024720007142145011620160226000000001600000VEB000000000000000jacintorojaszapata@hotmail.com          04144650445                    
02V014643985MANUEL JOSE MORENO LOPEZ                                    000000003SEMANA DE TRABAJO             CTA01160024760185344950011620160226000000002217020VEB000000000000000manuelmoreno2156@gmail.com              04267490025                    
